{
  "_format": "hh-sol-artifact-1",
  "contractName": "Splitwise1",
  "sourceName": "contracts/mycontract1.sol",
  "abi": [
    {
      "inputs": [],
      "stateMutability": "nonpayable",
      "type": "constructor"
    },
    {
      "inputs": [
        {
          "internalType": "address",
          "name": "creditor",
          "type": "address"
        },
        {
          "internalType": "uint256",
          "name": "amount",
          "type": "uint256"
        }
      ],
      "name": "add_IOU",
      "outputs": [],
      "stateMutability": "nonpayable",
      "type": "function"
    },
    {
      "inputs": [
        {
          "internalType": "address",
          "name": "debtor",
          "type": "address"
        },
        {
          "internalType": "address",
          "name": "creditor",
          "type": "address"
        }
      ],
      "name": "lookup",
      "outputs": [
        {
          "internalType": "uint256",
          "name": "",
          "type": "uint256"
        }
      ],
      "stateMutability": "nonpayable",
      "type": "function"
    }
  ],
  "bytecode": "0x608060405234801561001057600080fd5b5061020c806100206000396000f3fe608060405234801561001057600080fd5b50600436106100365760003560e01c8063215accc71461003b578063713584a614610057575b600080fd5b6100556004803603810190610050919061012c565b610087565b005b610071600480360381019061006c919061016c565b61008b565b60405161007e91906101bb565b60405180910390f35b5050565b600092915050565b600080fd5b600073ffffffffffffffffffffffffffffffffffffffff82169050919050565b60006100c382610098565b9050919050565b6100d3816100b8565b81146100de57600080fd5b50565b6000813590506100f0816100ca565b92915050565b6000819050919050565b610109816100f6565b811461011457600080fd5b50565b60008135905061012681610100565b92915050565b6000806040838503121561014357610142610093565b5b6000610151858286016100e1565b925050602061016285828601610117565b9150509250929050565b6000806040838503121561018357610182610093565b5b6000610191858286016100e1565b92505060206101a2858286016100e1565b9150509250929050565b6101b5816100f6565b82525050565b60006020820190506101d060008301846101ac565b9291505056fea26469706673582212203f62dec1e2d284e984ce9476bbda86e91ecfcd8275996924c3fe7c67bed0fa9264736f6c63430008110033",
  "linkReferences": {},
  "deployedLinkReferences": {}
}