{
  "_format": "hh-sol-artifact-1",
  "contractName": "Splitwise",
  "sourceName": "contracts/mycontract.sol",
  "abi": [
    {
      "inputs": [],
      "stateMutability": "nonpayable",
      "type": "constructor"
    },
    {
      "inputs": [
        {
          "internalType": "address",
          "name": "creditor",
          "type": "address"
        },
        {
          "internalType": "uint32",
          "name": "amount",
          "type": "uint32"
        },
        {
          "internalType": "address[]",
          "name": "loop",
          "type": "address[]"
        }
      ],
      "name": "add_IOU",
      "outputs": [],
      "stateMutability": "nonpayable",
      "type": "function"
    },
    {
      "inputs": [
        {
          "internalType": "address",
          "name": "debtor",
          "type": "address"
        }
      ],
      "name": "getCreditors",
      "outputs": [
        {
          "internalType": "address[]",
          "name": "",
          "type": "address[]"
        }
      ],
      "stateMutability": "view",
      "type": "function"
    },
    {
      "inputs": [],
      "name": "getUsers",
      "outputs": [
        {
          "internalType": "address[]",
          "name": "",
          "type": "address[]"
        }
      ],
      "stateMutability": "view",
      "type": "function"
    },
    {
      "inputs": [
        {
          "internalType": "address",
          "name": "debtor",
          "type": "address"
        },
        {
          "internalType": "address",
          "name": "creditor",
          "type": "address"
        }
      ],
      "name": "lookup",
      "outputs": [
        {
          "internalType": "uint32",
          "name": "ret",
          "type": "uint32"
        }
      ],
      "stateMutability": "view",
      "type": "function"
    },
    {
      "inputs": [
        {
          "internalType": "uint256",
          "name": "",
          "type": "uint256"
        }
      ],
      "name": "userAddresses",
      "outputs": [
        {
          "internalType": "address",
          "name": "",
          "type": "address"
        }
      ],
      "stateMutability": "view",
      "type": "function"
    },
    {
      "inputs": [
        {
          "internalType": "address",
          "name": "",
          "type": "address"
        }
      ],
      "name": "users",
      "outputs": [
        {
          "internalType": "uint32",
          "name": "totalOwed",
          "type": "uint32"
        },
        {
          "internalType": "uint256",
          "name": "lastActive",
          "type": "uint256"
        }
      ],
      "stateMutability": "view",
      "type": "function"
    }
  ],
  "bytecode": "0x608060405234801561001057600080fd5b5061162e806100206000396000f3fe608060405234801561001057600080fd5b50600436106100615760003560e01c8062ce8e3e14610066578063502c9bd514610084578063713584a6146100b45780638d8bea50146100e4578063a87430ba14610114578063dd033b8d14610145575b600080fd5b61006e610161565b60405161007b9190610fa9565b60405180910390f35b61009e60048036038101906100999190611015565b6101ef565b6040516100ab9190611051565b60405180910390f35b6100ce60048036038101906100c99190611098565b61022e565b6040516100db91906110f7565b60405180910390f35b6100fe60048036038101906100f99190611112565b6102c7565b60405161010b9190610fa9565b60405180910390f35b61012e60048036038101906101299190611112565b610396565b60405161013c92919061114e565b60405180910390f35b61015f600480360381019061015a91906112fc565b6103ca565b005b606060018054806020026020016040519081016040528092919081815260200182805480156101e557602002820191906000526020600020905b8160009054906101000a900473ffffffffffffffffffffffffffffffffffffffff1673ffffffffffffffffffffffffffffffffffffffff168152602001906001019080831161019b575b5050505050905090565b600181815481106101ff57600080fd5b906000526020600020016000915054906101000a900473ffffffffffffffffffffffffffffffffffffffff1681565b60008060008473ffffffffffffffffffffffffffffffffffffffff1673ffffffffffffffffffffffffffffffffffffffff16815260200190815260200160002060000160008373ffffffffffffffffffffffffffffffffffffffff1673ffffffffffffffffffffffffffffffffffffffff16815260200190815260200160002060009054906101000a900463ffffffff16905092915050565b60606000808373ffffffffffffffffffffffffffffffffffffffff1673ffffffffffffffffffffffffffffffffffffffff16815260200190815260200160002060030180548060200260200160405190810160405280929190818152602001828054801561038a57602002820191906000526020600020905b8160009054906101000a900473ffffffffffffffffffffffffffffffffffffffff1673ffffffffffffffffffffffffffffffffffffffff1681526020019060010190808311610340575b50505050509050919050565b60006020528060005260406000206000915090508060010160009054906101000a900463ffffffff16908060020154905082565b3373ffffffffffffffffffffffffffffffffffffffff168373ffffffffffffffffffffffffffffffffffffffff1603610438576040517f08c379a000000000000000000000000000000000000000000000000000000000815260040161042f906113ee565b60405180910390fd5b60008263ffffffff1611610481576040517f08c379a00000000000000000000000000000000000000000000000000000000081526004016104789061145a565b60405180910390fd5b60008060003373ffffffffffffffffffffffffffffffffffffffff1673ffffffffffffffffffffffffffffffffffffffff1681526020019081526020016000206002015403610574576001339080600181540180825580915050600190039060005260206000200160009091909190916101000a81548173ffffffffffffffffffffffffffffffffffffffff021916908373ffffffffffffffffffffffffffffffffffffffff160217905550426000803373ffffffffffffffffffffffffffffffffffffffff1673ffffffffffffffffffffffffffffffffffffffff168152602001908152602001600020600201819055505b60008060008573ffffffffffffffffffffffffffffffffffffffff1673ffffffffffffffffffffffffffffffffffffffff1681526020019081526020016000206002015403610667576001839080600181540180825580915050600190039060005260206000200160009091909190916101000a81548173ffffffffffffffffffffffffffffffffffffffff021916908373ffffffffffffffffffffffffffffffffffffffff160217905550426000808573ffffffffffffffffffffffffffffffffffffffff1673ffffffffffffffffffffffffffffffffffffffff168152602001908152602001600020600201819055505b60008060003373ffffffffffffffffffffffffffffffffffffffff1673ffffffffffffffffffffffffffffffffffffffff16815260200190815260200160002060000160008573ffffffffffffffffffffffffffffffffffffffff1673ffffffffffffffffffffffffffffffffffffffff16815260200190815260200160002060009054906101000a900463ffffffff1663ffffffff16036107a6576000803373ffffffffffffffffffffffffffffffffffffffff1673ffffffffffffffffffffffffffffffffffffffff168152602001908152602001600020600301839080600181540180825580915050600190039060005260206000200160009091909190916101000a81548173ffffffffffffffffffffffffffffffffffffffff021916908373ffffffffffffffffffffffffffffffffffffffff1602179055505b816000803373ffffffffffffffffffffffffffffffffffffffff1673ffffffffffffffffffffffffffffffffffffffff16815260200190815260200160002060000160008573ffffffffffffffffffffffffffffffffffffffff1673ffffffffffffffffffffffffffffffffffffffff16815260200190815260200160002060008282829054906101000a900463ffffffff1661084391906114a9565b92506101000a81548163ffffffff021916908363ffffffff160217905550816000803373ffffffffffffffffffffffffffffffffffffffff1673ffffffffffffffffffffffffffffffffffffffff16815260200190815260200160002060010160008282829054906101000a900463ffffffff166108c191906114a9565b92506101000a81548163ffffffff021916908363ffffffff1602179055506000815111156108f3576108f2816108f8565b5b505050565b6000805b6001835161090a91906114e1565b811015610a4357600083828151811061092657610925611515565b5b602002602001015190506000846001846109409190611544565b8151811061095157610950611515565b5b6020026020010151905060008060008473ffffffffffffffffffffffffffffffffffffffff1673ffffffffffffffffffffffffffffffffffffffff16815260200190815260200160002060000160008373ffffffffffffffffffffffffffffffffffffffff1673ffffffffffffffffffffffffffffffffffffffff16815260200190815260200160002060009054906101000a900463ffffffff16905060008163ffffffff1603610a0457505050610a43565b8463ffffffff168163ffffffff161080610a24575060008563ffffffff16145b15610a2d578094505b5050508080610a3b90611578565b9150506108fc565b5060008060008460018651610a5891906114e1565b81518110610a6957610a68611515565b5b602002602001015173ffffffffffffffffffffffffffffffffffffffff1673ffffffffffffffffffffffffffffffffffffffff168152602001908152602001600020600001600084600081518110610ac457610ac3611515565b5b602002602001015173ffffffffffffffffffffffffffffffffffffffff1673ffffffffffffffffffffffffffffffffffffffff16815260200190815260200160002060009054906101000a900463ffffffff16905060008263ffffffff16118015610b35575060008163ffffffff16115b15610eb4578163ffffffff168163ffffffff161015610b52578091505b60005b60018451610b6391906114e1565b811015610d105782600080868481518110610b8157610b80611515565b5b602002602001015173ffffffffffffffffffffffffffffffffffffffff1673ffffffffffffffffffffffffffffffffffffffff16815260200190815260200160002060010160008282829054906101000a900463ffffffff16610be491906115c0565b92506101000a81548163ffffffff021916908363ffffffff16021790555082600080868481518110610c1957610c18611515565b5b602002602001015173ffffffffffffffffffffffffffffffffffffffff1673ffffffffffffffffffffffffffffffffffffffff168152602001908152602001600020600001600086600185610c6e9190611544565b81518110610c7f57610c7e611515565b5b602002602001015173ffffffffffffffffffffffffffffffffffffffff1673ffffffffffffffffffffffffffffffffffffffff16815260200190815260200160002060008282829054906101000a900463ffffffff16610cdf91906115c0565b92506101000a81548163ffffffff021916908363ffffffff1602179055508080610d0890611578565b915050610b55565b50816000808560018751610d2491906114e1565b81518110610d3557610d34611515565b5b602002602001015173ffffffffffffffffffffffffffffffffffffffff1673ffffffffffffffffffffffffffffffffffffffff16815260200190815260200160002060010160008282829054906101000a900463ffffffff16610d9891906115c0565b92506101000a81548163ffffffff021916908363ffffffff160217905550816000808560018751610dc991906114e1565b81518110610dda57610dd9611515565b5b602002602001015173ffffffffffffffffffffffffffffffffffffffff1673ffffffffffffffffffffffffffffffffffffffff168152602001908152602001600020600001600085600081518110610e3557610e34611515565b5b602002602001015173ffffffffffffffffffffffffffffffffffffffff1673ffffffffffffffffffffffffffffffffffffffff16815260200190815260200160002060008282829054906101000a900463ffffffff16610e9591906115c0565b92506101000a81548163ffffffff021916908363ffffffff1602179055505b505050565b600081519050919050565b600082825260208201905092915050565b6000819050602082019050919050565b600073ffffffffffffffffffffffffffffffffffffffff82169050919050565b6000610f1082610ee5565b9050919050565b610f2081610f05565b82525050565b6000610f328383610f17565b60208301905092915050565b6000602082019050919050565b6000610f5682610eb9565b610f608185610ec4565b9350610f6b83610ed5565b8060005b83811015610f9c578151610f838882610f26565b9750610f8e83610f3e565b925050600181019050610f6f565b5085935050505092915050565b60006020820190508181036000830152610fc38184610f4b565b905092915050565b6000604051905090565b600080fd5b600080fd5b6000819050919050565b610ff281610fdf565b8114610ffd57600080fd5b50565b60008135905061100f81610fe9565b92915050565b60006020828403121561102b5761102a610fd5565b5b600061103984828501611000565b91505092915050565b61104b81610f05565b82525050565b60006020820190506110666000830184611042565b92915050565b61107581610f05565b811461108057600080fd5b50565b6000813590506110928161106c565b92915050565b600080604083850312156110af576110ae610fd5565b5b60006110bd85828601611083565b92505060206110ce85828601611083565b9150509250929050565b600063ffffffff82169050919050565b6110f1816110d8565b82525050565b600060208201905061110c60008301846110e8565b92915050565b60006020828403121561112857611127610fd5565b5b600061113684828501611083565b91505092915050565b61114881610fdf565b82525050565b600060408201905061116360008301856110e8565b611170602083018461113f565b9392505050565b611180816110d8565b811461118b57600080fd5b50565b60008135905061119d81611177565b92915050565b600080fd5b6000601f19601f8301169050919050565b7f4e487b7100000000000000000000000000000000000000000000000000000000600052604160045260246000fd5b6111f1826111a8565b810181811067ffffffffffffffff821117156112105761120f6111b9565b5b80604052505050565b6000611223610fcb565b905061122f82826111e8565b919050565b600067ffffffffffffffff82111561124f5761124e6111b9565b5b602082029050602081019050919050565b600080fd5b600061127861127384611234565b611219565b9050808382526020820190506020840283018581111561129b5761129a611260565b5b835b818110156112c457806112b08882611083565b84526020840193505060208101905061129d565b5050509392505050565b600082601f8301126112e3576112e26111a3565b5b81356112f3848260208601611265565b91505092915050565b60008060006060848603121561131557611314610fd5565b5b600061132386828701611083565b93505060206113348682870161118e565b925050604084013567ffffffffffffffff81111561135557611354610fda565b5b611361868287016112ce565b9150509250925092565b600082825260208201905092915050565b7f4f7765696e672066726f6d20796f757273656c66206973206e6f7420616c6c6f60008201527f7765640000000000000000000000000000000000000000000000000000000000602082015250565b60006113d860238361136b565b91506113e38261137c565b604082019050919050565b60006020820190508181036000830152611407816113cb565b9050919050565b7f416d6f756e74206d757374206265206120706f736974697665206e756d626572600082015250565b600061144460208361136b565b915061144f8261140e565b602082019050919050565b6000602082019050818103600083015261147381611437565b9050919050565b7f4e487b7100000000000000000000000000000000000000000000000000000000600052601160045260246000fd5b60006114b4826110d8565b91506114bf836110d8565b9250828201905063ffffffff8111156114db576114da61147a565b5b92915050565b60006114ec82610fdf565b91506114f783610fdf565b925082820390508181111561150f5761150e61147a565b5b92915050565b7f4e487b7100000000000000000000000000000000000000000000000000000000600052603260045260246000fd5b600061154f82610fdf565b915061155a83610fdf565b92508282019050808211156115725761157161147a565b5b92915050565b600061158382610fdf565b91507fffffffffffffffffffffffffffffffffffffffffffffffffffffffffffffffff82036115b5576115b461147a565b5b600182019050919050565b60006115cb826110d8565b91506115d6836110d8565b9250828203905063ffffffff8111156115f2576115f161147a565b5b9291505056fea2646970667358221220549cd7a57691d44411c09eefde2bb689d4340e2bb5da90d011b4849398e1498264736f6c63430008110033",
  "linkReferences": {},
  "deployedLinkReferences": {}
}